{
  "_format": "hh-sol-artifact-1",
  "contractName": "sagitaPortal",
  "sourceName": "contracts/sagita.sol",
  "abi": [
    {
      "inputs": [],
      "stateMutability": "payable",
      "type": "constructor"
    },
    {
      "anonymous": false,
      "inputs": [
        {
          "indexed": true,
          "internalType": "address",
          "name": "indexer",
          "type": "address"
        },
        {
          "indexed": false,
          "internalType": "uint256",
          "name": "timestamp",
          "type": "uint256"
        },
        {
          "indexed": false,
          "internalType": "string",
          "name": "parentname",
          "type": "string"
        },
        {
          "indexed": false,
          "internalType": "string",
          "name": "parenturl",
          "type": "string"
        },
        {
          "indexed": false,
          "internalType": "string",
          "name": "parentcontract",
          "type": "string"
        },
        {
          "indexed": false,
          "internalType": "string",
          "name": "childname",
          "type": "string"
        },
        {
          "indexed": false,
          "internalType": "string",
          "name": "childurl",
          "type": "string"
        },
        {
          "indexed": false,
          "internalType": "string",
          "name": "childcontract",
          "type": "string"
        },
        {
          "indexed": false,
          "internalType": "address[]",
          "name": "approvers",
          "type": "address[]"
        }
      ],
      "name": "NewEdge",
      "type": "event"
    },
    {
      "anonymous": false,
      "inputs": [
        {
          "indexed": true,
          "internalType": "address",
          "name": "previousOwner",
          "type": "address"
        },
        {
          "indexed": true,
          "internalType": "address",
          "name": "newOwner",
          "type": "address"
        }
      ],
      "name": "OwnershipTransferred",
      "type": "event"
    },
    {
      "anonymous": false,
      "inputs": [
        {
          "indexed": false,
          "internalType": "address",
          "name": "account",
          "type": "address"
        }
      ],
      "name": "Paused",
      "type": "event"
    },
    {
      "anonymous": false,
      "inputs": [
        {
          "indexed": false,
          "internalType": "address",
          "name": "",
          "type": "address"
        },
        {
          "indexed": false,
          "internalType": "uint256",
          "name": "",
          "type": "uint256"
        }
      ],
      "name": "Received",
      "type": "event"
    },
    {
      "anonymous": false,
      "inputs": [
        {
          "indexed": false,
          "internalType": "address",
          "name": "account",
          "type": "address"
        }
      ],
      "name": "Unpaused",
      "type": "event"
    },
    {
      "inputs": [
        {
          "internalType": "string",
          "name": "_parentname",
          "type": "string"
        },
        {
          "internalType": "string",
          "name": "_parenturl",
          "type": "string"
        },
        {
          "internalType": "string",
          "name": "_parentcontract",
          "type": "string"
        },
        {
          "internalType": "string",
          "name": "_childname",
          "type": "string"
        },
        {
          "internalType": "string",
          "name": "_childurl",
          "type": "string"
        },
        {
          "internalType": "string",
          "name": "_childcontract",
          "type": "string"
        },
        {
          "internalType": "address[]",
          "name": "_approvers",
          "type": "address[]"
        }
      ],
      "name": "addEdge",
      "outputs": [],
      "stateMutability": "nonpayable",
      "type": "function"
    },
    {
      "inputs": [
        {
          "internalType": "uint256",
          "name": "_indexId",
          "type": "uint256"
        }
      ],
      "name": "approve",
      "outputs": [],
      "stateMutability": "nonpayable",
      "type": "function"
    },
    {
      "inputs": [],
      "name": "checkValidator",
      "outputs": [
        {
          "internalType": "bool",
          "name": "",
          "type": "bool"
        }
      ],
      "stateMutability": "view",
      "type": "function"
    },
    {
      "inputs": [
        {
          "internalType": "address",
          "name": "_account",
          "type": "address"
        }
      ],
      "name": "deleteValidator",
      "outputs": [],
      "stateMutability": "nonpayable",
      "type": "function"
    },
    {
      "inputs": [
        {
          "internalType": "uint256",
          "name": "",
          "type": "uint256"
        }
      ],
      "name": "edges",
      "outputs": [
        {
          "internalType": "address",
          "name": "indexer",
          "type": "address"
        },
        {
          "internalType": "uint256",
          "name": "timestamp",
          "type": "uint256"
        },
        {
          "internalType": "string",
          "name": "parentname",
          "type": "string"
        },
        {
          "internalType": "string",
          "name": "parenturl",
          "type": "string"
        },
        {
          "internalType": "string",
          "name": "parentcontract",
          "type": "string"
        },
        {
          "internalType": "string",
          "name": "childname",
          "type": "string"
        },
        {
          "internalType": "string",
          "name": "childurl",
          "type": "string"
        },
        {
          "internalType": "string",
          "name": "childcontract",
          "type": "string"
        }
      ],
      "stateMutability": "view",
      "type": "function"
    },
    {
      "inputs": [],
      "name": "getAllEdges",
      "outputs": [
        {
          "components": [
            {
              "internalType": "address",
              "name": "indexer",
              "type": "address"
            },
            {
              "internalType": "uint256",
              "name": "timestamp",
              "type": "uint256"
            },
            {
              "internalType": "string",
              "name": "parentname",
              "type": "string"
            },
            {
              "internalType": "string",
              "name": "parenturl",
              "type": "string"
            },
            {
              "internalType": "string",
              "name": "parentcontract",
              "type": "string"
            },
            {
              "internalType": "string",
              "name": "childname",
              "type": "string"
            },
            {
              "internalType": "string",
              "name": "childurl",
              "type": "string"
            },
            {
              "internalType": "string",
              "name": "childcontract",
              "type": "string"
            },
            {
              "internalType": "address[]",
              "name": "approvers",
              "type": "address[]"
            }
          ],
          "internalType": "struct sagitaPortal.EdgeIndex[]",
          "name": "",
          "type": "tuple[]"
        }
      ],
      "stateMutability": "view",
      "type": "function"
    },
    {
      "inputs": [],
      "name": "getAllUsers",
      "outputs": [
        {
          "components": [
            {
              "internalType": "address",
              "name": "account",
              "type": "address"
            }
          ],
          "internalType": "struct sagitaPortal.User[]",
          "name": "",
          "type": "tuple[]"
        }
      ],
      "stateMutability": "view",
      "type": "function"
    },
    {
      "inputs": [],
      "name": "getAllValidators",
      "outputs": [
        {
          "internalType": "address[]",
          "name": "",
          "type": "address[]"
        }
      ],
      "stateMutability": "view",
      "type": "function"
    },
    {
      "inputs": [],
      "name": "getEdgeCount",
      "outputs": [
        {
          "internalType": "uint256",
          "name": "",
          "type": "uint256"
        }
      ],
      "stateMutability": "view",
      "type": "function"
    },
    {
      "inputs": [],
      "name": "getValidatorCount",
      "outputs": [
        {
          "internalType": "uint256",
          "name": "",
          "type": "uint256"
        }
      ],
      "stateMutability": "view",
      "type": "function"
    },
    {
      "inputs": [
        {
          "internalType": "address",
          "name": "",
          "type": "address"
        }
      ],
      "name": "isIndexer",
      "outputs": [
        {
          "internalType": "bool",
          "name": "",
          "type": "bool"
        }
      ],
      "stateMutability": "view",
      "type": "function"
    },
    {
      "inputs": [
        {
          "internalType": "address",
          "name": "",
          "type": "address"
        }
      ],
      "name": "isValidator",
      "outputs": [
        {
          "internalType": "bool",
          "name": "",
          "type": "bool"
        }
      ],
      "stateMutability": "view",
      "type": "function"
    },
    {
      "inputs": [],
      "name": "owner",
      "outputs": [
        {
          "internalType": "address",
          "name": "",
          "type": "address"
        }
      ],
      "stateMutability": "view",
      "type": "function"
    },
    {
      "inputs": [],
      "name": "paused",
      "outputs": [
        {
          "internalType": "bool",
          "name": "",
          "type": "bool"
        }
      ],
      "stateMutability": "view",
      "type": "function"
    },
    {
      "inputs": [],
      "name": "renounceOwnership",
      "outputs": [],
      "stateMutability": "nonpayable",
      "type": "function"
    },
    {
      "inputs": [
        {
          "internalType": "address",
          "name": "newOwner",
          "type": "address"
        }
      ],
      "name": "transferOwnership",
      "outputs": [],
      "stateMutability": "nonpayable",
      "type": "function"
    },
    {
      "inputs": [
        {
          "internalType": "address",
          "name": "_account",
          "type": "address"
        }
      ],
      "name": "upsertValidator",
      "outputs": [],
      "stateMutability": "nonpayable",
      "type": "function"
    },
    {
      "inputs": [
        {
          "internalType": "uint256",
          "name": "",
          "type": "uint256"
        }
      ],
      "name": "users",
      "outputs": [
        {
          "internalType": "address",
          "name": "account",
          "type": "address"
        }
      ],
      "stateMutability": "view",
      "type": "function"
    },
    {
      "stateMutability": "payable",
      "type": "receive"
    }
  ],
  "bytecode": "0x608060405262000024620000186200008f60201b60201c565b6200009760201b60201c565b60008060146101000a81548160ff021916908315150217905550620000896040518060400160405280601981526020017f57652068617665206265656e20636f6e737472756374656421000000000000008152506200015b60201b6200191f1760201c565b620002ef565b600033905090565b60008060009054906101000a900473ffffffffffffffffffffffffffffffffffffffff169050816000806101000a81548173ffffffffffffffffffffffffffffffffffffffff021916908373ffffffffffffffffffffffffffffffffffffffff1602179055508173ffffffffffffffffffffffffffffffffffffffff168173ffffffffffffffffffffffffffffffffffffffff167f8be0079c531659141344cd1fd0a4f28419497f9722a3daafe3b4186f6b6457e060405160405180910390a35050565b620001fb8160405160240162000172919062000268565b6040516020818303038152906040527f41304fac000000000000000000000000000000000000000000000000000000007bffffffffffffffffffffffffffffffffffffffffffffffffffffffff19166020820180517bffffffffffffffffffffffffffffffffffffffffffffffffffffffff8381831617835250505050620001fe60201b60201c565b50565b60008151905060006a636f6e736f6c652e6c6f679050602083016000808483855afa5050505050565b600062000234826200028c565b62000240818562000297565b935062000252818560208601620002a8565b6200025d81620002de565b840191505092915050565b6000602082019050818103600083015262000284818462000227565b905092915050565b600081519050919050565b600082825260208201905092915050565b60005b83811015620002c8578082015181840152602081019050620002ab565b83811115620002d8576000848401525b50505050565b6000601f19601f8301169050919050565b612bf580620002ff6000396000f3fe60806040526004361061010c5760003560e01c806386b9fd7a11610095578063da68d55a11610064578063da68d55a146103a1578063e2842d79146103cc578063f2fde38b146103f7578063f3513a3714610420578063facd743b1461044b5761014c565b806386b9fd7a146102f95780638da5cb5b146103245780639cbfc7651461034f578063b759f954146103785761014c565b8063365b98b2116100dc578063365b98b21461022457806338f58053146102615780635c975abb1461028c5780637071688a146102b7578063715018a6146102e25761014c565b8062baae781461015157806304924cb8146101955780632c6cf4e2146101be57806330465a11146101fb5761014c565b3661014c577f88a5966d370b9919b20f3e2c13ff65706f196a4e32cc2c12bf57088f885258743334604051610142929190612452565b60405180910390a1005b600080fd5b34801561015d57600080fd5b506101786004803603810190610173919061202d565b610488565b60405161018c98979695949392919061247b565b60405180910390f35b3480156101a157600080fd5b506101bc60048036038101906101b79190611ee7565b610830565b005b3480156101ca57600080fd5b506101e560048036038101906101e09190611ebe565b610a8f565b6040516101f29190612589565b60405180910390f35b34801561020757600080fd5b50610222600480360381019061021d9190611ebe565b610aaf565b005b34801561023057600080fd5b5061024b6004803603810190610246919061202d565b610c85565b6040516102589190612437565b60405180910390f35b34801561026d57600080fd5b50610276610ccf565b6040516102839190612690565b60405180910390f35b34801561029857600080fd5b506102a1610d1a565b6040516102ae9190612589565b60405180910390f35b3480156102c357600080fd5b506102cc610d30565b6040516102d99190612690565b60405180910390f35b3480156102ee57600080fd5b506102f7610d3a565b005b34801561030557600080fd5b5061030e610d4e565b60405161031b9190612589565b60405180910390f35b34801561033057600080fd5b50610339610da2565b6040516103469190612437565b60405180910390f35b34801561035b57600080fd5b5061037660048036038101906103719190611ebe565b610dcb565b005b34801561038457600080fd5b5061039f600480360381019061039a919061202d565b610e46565b005b3480156103ad57600080fd5b506103b6611088565b6040516103c39190612545565b60405180910390f35b3480156103d857600080fd5b506103e1611580565b6040516103ee9190612567565b60405180910390f35b34801561040357600080fd5b5061041e60048036038101906104199190611ebe565b611631565b005b34801561042c57600080fd5b506104356116b5565b6040516104429190612523565b60405180910390f35b34801561045757600080fd5b50610472600480360381019061046d9190611ebe565b6118ff565b60405161047f9190612589565b60405180910390f35b6003818154811061049857600080fd5b90600052602060002090600902016000915090508060000160009054906101000a900473ffffffffffffffffffffffffffffffffffffffff16908060010154908060020180546104e7906129cf565b80601f0160208091040260200160405190810160405280929190818152602001828054610513906129cf565b80156105605780601f1061053557610100808354040283529160200191610560565b820191906000526020600020905b81548152906001019060200180831161054357829003601f168201915b505050505090806003018054610575906129cf565b80601f01602080910402602001604051908101604052809291908181526020018280546105a1906129cf565b80156105ee5780601f106105c3576101008083540402835291602001916105ee565b820191906000526020600020905b8154815290600101906020018083116105d157829003601f168201915b505050505090806004018054610603906129cf565b80601f016020809104026020016040519081016040528092919081815260200182805461062f906129cf565b801561067c5780601f106106515761010080835404028352916020019161067c565b820191906000526020600020905b81548152906001019060200180831161065f57829003601f168201915b505050505090806005018054610691906129cf565b80601f01602080910402602001604051908101604052809291908181526020018280546106bd906129cf565b801561070a5780601f106106df5761010080835404028352916020019161070a565b820191906000526020600020905b8154815290600101906020018083116106ed57829003601f168201915b50505050509080600601805461071f906129cf565b80601f016020809104026020016040519081016040528092919081815260200182805461074b906129cf565b80156107985780601f1061076d57610100808354040283529160200191610798565b820191906000526020600020905b81548152906001019060200180831161077b57829003601f168201915b5050505050908060070180546107ad906129cf565b80601f01602080910402602001604051908101604052809291908181526020018280546107d9906129cf565b80156108265780601f106107fb57610100808354040283529160200191610826565b820191906000526020600020905b81548152906001019060200180831161080957829003601f168201915b5050505050905088565b600180600082825461084291906128c5565b9250508190555061088a6040518060400160405280601a81526020017f2573206164646564206564676520772f2020257320746f2025730000000000008152503388866119b8565b60036040518061012001604052803373ffffffffffffffffffffffffffffffffffffffff16815260200142815260200189815260200188815260200187815260200186815260200185815260200184815260200183815250908060018154018082558091505060019003906000526020600020906009020160009091909190915060008201518160000160006101000a81548173ffffffffffffffffffffffffffffffffffffffff021916908373ffffffffffffffffffffffffffffffffffffffff160217905550602082015181600101556040820151816002019080519060200190610978929190611c69565b506060820151816003019080519060200190610995929190611c69565b5060808201518160040190805190602001906109b2929190611c69565b5060a08201518160050190805190602001906109cf929190611c69565b5060c08201518160060190805190602001906109ec929190611c69565b5060e0820151816007019080519060200190610a09929190611c69565b50610100820151816008019080519060200190610a27929190611cef565b5050503373ffffffffffffffffffffffffffffffffffffffff167f6ec9818240bdd21aa5536868b994de69c9244d79159974d1bb9222a17a6f8e2f4289898989898989604051610a7e9897969594939291906126ab565b60405180910390a250505050505050565b60056020528060005260406000206000915054906101000a900460ff1681565b610ab7611a5a565b6001600660008373ffffffffffffffffffffffffffffffffffffffff1673ffffffffffffffffffffffffffffffffffffffff16815260200190815260200160002060006101000a81548160ff02191690831515021790555060026000815480929190610b2290612a32565b919050555060005b600480549050811015610beb578173ffffffffffffffffffffffffffffffffffffffff1660048281548110610b88577f4e487b7100000000000000000000000000000000000000000000000000000000600052603260045260246000fd5b9060005260206000200160000160009054906101000a900473ffffffffffffffffffffffffffffffffffffffff1673ffffffffffffffffffffffffffffffffffffffff161415610bd85750610c82565b8080610be390612a32565b915050610b2a565b50600460405180602001604052808373ffffffffffffffffffffffffffffffffffffffff168152509080600181540180825580915050600190039060005260206000200160009091909190915060008201518160000160006101000a81548173ffffffffffffffffffffffffffffffffffffffff021916908373ffffffffffffffffffffffffffffffffffffffff16021790555050505b50565b60048181548110610c9557600080fd5b906000526020600020016000915090508060000160009054906101000a900473ffffffffffffffffffffffffffffffffffffffff16905081565b6000610d126040518060400160405280601381526020017f5765206861766520256420696e64657865732100000000000000000000000000815250600154611ad8565b600154905090565b60008060149054906101000a900460ff16905090565b6000600254905090565b610d42611a5a565b610d4c6000611b74565b565b6000600660003373ffffffffffffffffffffffffffffffffffffffff1673ffffffffffffffffffffffffffffffffffffffff16815260200190815260200160002060009054906101000a900460ff16905090565b60008060009054906101000a900473ffffffffffffffffffffffffffffffffffffffff16905090565b610dd3611a5a565b6000600660008373ffffffffffffffffffffffffffffffffffffffff1673ffffffffffffffffffffffffffffffffffffffff16815260200190815260200160002060006101000a81548160ff02191690831515021790555060026000815480929190610e3e906129a5565b919050555050565b60005b60038281548110610e83577f4e487b7100000000000000000000000000000000000000000000000000000000600052603260045260246000fd5b906000526020600020906009020160080180549050811015610f99573373ffffffffffffffffffffffffffffffffffffffff1660038381548110610ef0577f4e487b7100000000000000000000000000000000000000000000000000000000600052603260045260246000fd5b90600052602060002090600902016008018281548110610f39577f4e487b7100000000000000000000000000000000000000000000000000000000600052603260045260246000fd5b9060005260206000200160009054906101000a900473ffffffffffffffffffffffffffffffffffffffff1673ffffffffffffffffffffffffffffffffffffffff161415610f865750611085565b8080610f9190612a32565b915050610e49565b5060038181548110610fd4577f4e487b7100000000000000000000000000000000000000000000000000000000600052603260045260246000fd5b9060005260206000209060090201600801339080600181540180825580915050600190039060005260206000200160009091909190916101000a81548173ffffffffffffffffffffffffffffffffffffffff021916908373ffffffffffffffffffffffffffffffffffffffff1602179055506110846040518060400160405280600581526020017f616464656400000000000000000000000000000000000000000000000000000081525061191f565b5b50565b60606110c86040518060400160405280600d81526020017f67657420616c6c2065646765730000000000000000000000000000000000000081525061191f565b6003805480602002602001604051908101604052809291908181526020016000905b828210156115775783829060005260206000209060090201604051806101200160405290816000820160009054906101000a900473ffffffffffffffffffffffffffffffffffffffff1673ffffffffffffffffffffffffffffffffffffffff1673ffffffffffffffffffffffffffffffffffffffff1681526020016001820154815260200160028201805461117e906129cf565b80601f01602080910402602001604051908101604052809291908181526020018280546111aa906129cf565b80156111f75780601f106111cc576101008083540402835291602001916111f7565b820191906000526020600020905b8154815290600101906020018083116111da57829003601f168201915b50505050508152602001600382018054611210906129cf565b80601f016020809104026020016040519081016040528092919081815260200182805461123c906129cf565b80156112895780601f1061125e57610100808354040283529160200191611289565b820191906000526020600020905b81548152906001019060200180831161126c57829003601f168201915b505050505081526020016004820180546112a2906129cf565b80601f01602080910402602001604051908101604052809291908181526020018280546112ce906129cf565b801561131b5780601f106112f05761010080835404028352916020019161131b565b820191906000526020600020905b8154815290600101906020018083116112fe57829003601f168201915b50505050508152602001600582018054611334906129cf565b80601f0160208091040260200160405190810160405280929190818152602001828054611360906129cf565b80156113ad5780601f10611382576101008083540402835291602001916113ad565b820191906000526020600020905b81548152906001019060200180831161139057829003601f168201915b505050505081526020016006820180546113c6906129cf565b80601f01602080910402602001604051908101604052809291908181526020018280546113f2906129cf565b801561143f5780601f106114145761010080835404028352916020019161143f565b820191906000526020600020905b81548152906001019060200180831161142257829003601f168201915b50505050508152602001600782018054611458906129cf565b80601f0160208091040260200160405190810160405280929190818152602001828054611484906129cf565b80156114d15780601f106114a6576101008083540402835291602001916114d1565b820191906000526020600020905b8154815290600101906020018083116114b457829003601f168201915b505050505081526020016008820180548060200260200160405190810160405280929190818152602001828054801561155f57602002820191906000526020600020905b8160009054906101000a900473ffffffffffffffffffffffffffffffffffffffff1673ffffffffffffffffffffffffffffffffffffffff1681526020019060010190808311611515575b505050505081525050815260200190600101906110ea565b50505050905090565b60606004805480602002602001604051908101604052809291908181526020016000905b82821015611628578382906000526020600020016040518060200160405290816000820160009054906101000a900473ffffffffffffffffffffffffffffffffffffffff1673ffffffffffffffffffffffffffffffffffffffff1673ffffffffffffffffffffffffffffffffffffffff1681525050815260200190600101906115a4565b50505050905090565b611639611a5a565b600073ffffffffffffffffffffffffffffffffffffffff168173ffffffffffffffffffffffffffffffffffffffff1614156116a9576040517f08c379a00000000000000000000000000000000000000000000000000000000081526004016116a090612650565b60405180910390fd5b6116b281611b74565b50565b6060600060048054905067ffffffffffffffff8111156116fe577f4e487b7100000000000000000000000000000000000000000000000000000000600052604160045260246000fd5b60405190808252806020026020018201604052801561172c5781602001602082028036833780820191505090505b5090506000805b6004805490508110156118f657600660006004838154811061177e577f4e487b7100000000000000000000000000000000000000000000000000000000600052603260045260246000fd5b9060005260206000200160000160009054906101000a900473ffffffffffffffffffffffffffffffffffffffff1673ffffffffffffffffffffffffffffffffffffffff1673ffffffffffffffffffffffffffffffffffffffff16815260200190815260200160002060009054906101000a900460ff16156118e35760048181548110611833577f4e487b7100000000000000000000000000000000000000000000000000000000600052603260045260246000fd5b9060005260206000200160000160009054906101000a900473ffffffffffffffffffffffffffffffffffffffff1683838151811061189a577f4e487b7100000000000000000000000000000000000000000000000000000000600052603260045260246000fd5b602002602001019073ffffffffffffffffffffffffffffffffffffffff16908173ffffffffffffffffffffffffffffffffffffffff168152505081806118df90612a32565b9250505b80806118ee90612a32565b915050611733565b50819250505090565b60066020528060005260406000206000915054906101000a900460ff1681565b6119b58160405160240161193391906125a4565b6040516020818303038152906040527f41304fac000000000000000000000000000000000000000000000000000000007bffffffffffffffffffffffffffffffffffffffffffffffffffffffff19166020820180517bffffffffffffffffffffffffffffffffffffffffffffffffffffffff8381831617835250505050611c38565b50565b611a54848484846040516024016119d294939291906125c6565b6040516020818303038152906040527f245986f2000000000000000000000000000000000000000000000000000000007bffffffffffffffffffffffffffffffffffffffffffffffffffffffff19166020820180517bffffffffffffffffffffffffffffffffffffffffffffffffffffffff8381831617835250505050611c38565b50505050565b611a62611c61565b73ffffffffffffffffffffffffffffffffffffffff16611a80610da2565b73ffffffffffffffffffffffffffffffffffffffff1614611ad6576040517f08c379a0000000000000000000000000000000000000000000000000000000008152600401611acd90612670565b60405180910390fd5b565b611b708282604051602401611aee929190612620565b6040516020818303038152906040527f9710a9d0000000000000000000000000000000000000000000000000000000007bffffffffffffffffffffffffffffffffffffffffffffffffffffffff19166020820180517bffffffffffffffffffffffffffffffffffffffffffffffffffffffff8381831617835250505050611c38565b5050565b60008060009054906101000a900473ffffffffffffffffffffffffffffffffffffffff169050816000806101000a81548173ffffffffffffffffffffffffffffffffffffffff021916908373ffffffffffffffffffffffffffffffffffffffff1602179055508173ffffffffffffffffffffffffffffffffffffffff168173ffffffffffffffffffffffffffffffffffffffff167f8be0079c531659141344cd1fd0a4f28419497f9722a3daafe3b4186f6b6457e060405160405180910390a35050565b60008151905060006a636f6e736f6c652e6c6f679050602083016000808483855afa5050505050565b600033905090565b828054611c75906129cf565b90600052602060002090601f016020900481019282611c975760008555611cde565b82601f10611cb057805160ff1916838001178555611cde565b82800160010185558215611cde579182015b82811115611cdd578251825591602001919060010190611cc2565b5b509050611ceb9190611d79565b5090565b828054828255906000526020600020908101928215611d68579160200282015b82811115611d675782518260006101000a81548173ffffffffffffffffffffffffffffffffffffffff021916908373ffffffffffffffffffffffffffffffffffffffff16021790555091602001919060010190611d0f565b5b509050611d759190611d79565b5090565b5b80821115611d92576000816000905550600101611d7a565b5090565b6000611da9611da48461277f565b61275a565b90508083825260208201905082856020860282011115611dc857600080fd5b60005b85811015611df85781611dde8882611e40565b845260208401935060208301925050600181019050611dcb565b5050509392505050565b6000611e15611e10846127ab565b61275a565b905082815260208101848484011115611e2d57600080fd5b611e38848285612963565b509392505050565b600081359050611e4f81612b91565b92915050565b600082601f830112611e6657600080fd5b8135611e76848260208601611d96565b91505092915050565b600082601f830112611e9057600080fd5b8135611ea0848260208601611e02565b91505092915050565b600081359050611eb881612ba8565b92915050565b600060208284031215611ed057600080fd5b6000611ede84828501611e40565b91505092915050565b600080600080600080600060e0888a031215611f0257600080fd5b600088013567ffffffffffffffff811115611f1c57600080fd5b611f288a828b01611e7f565b975050602088013567ffffffffffffffff811115611f4557600080fd5b611f518a828b01611e7f565b965050604088013567ffffffffffffffff811115611f6e57600080fd5b611f7a8a828b01611e7f565b955050606088013567ffffffffffffffff811115611f9757600080fd5b611fa38a828b01611e7f565b945050608088013567ffffffffffffffff811115611fc057600080fd5b611fcc8a828b01611e7f565b93505060a088013567ffffffffffffffff811115611fe957600080fd5b611ff58a828b01611e7f565b92505060c088013567ffffffffffffffff81111561201257600080fd5b61201e8a828b01611e55565b91505092959891949750929550565b60006020828403121561203f57600080fd5b600061204d84828501611ea9565b91505092915050565b6000612062838361209a565b60208301905092915050565b600061207a838361230e565b905092915050565b600061208e83836123fd565b60208301905092915050565b6120a38161291b565b82525050565b6120b28161291b565b82525050565b60006120c38261280c565b6120cd818561285f565b93506120d8836127dc565b8060005b838110156121095781516120f08882612056565b97506120fb83612838565b9250506001810190506120dc565b5085935050505092915050565b60006121218261280c565b61212b8185612870565b9350612136836127dc565b8060005b8381101561216757815161214e8882612056565b975061215983612838565b92505060018101905061213a565b5085935050505092915050565b600061217f82612817565b6121898185612881565b93508360208202850161219b856127ec565b8060005b858110156121d757848403895281516121b8858261206e565b94506121c383612845565b925060208a0199505060018101905061219f565b50829750879550505050505092915050565b60006121f482612822565b6121fe8185612892565b9350612209836127fc565b8060005b8381101561223a5781516122218882612082565b975061222c83612852565b92505060018101905061220d565b5085935050505092915050565b6122508161292d565b82525050565b60006122618261282d565b61226b81856128a3565b935061227b818560208601612972565b61228481612b08565b840191505092915050565b600061229a8261282d565b6122a481856128b4565b93506122b4818560208601612972565b6122bd81612b08565b840191505092915050565b60006122d56026836128b4565b91506122e082612b19565b604082019050919050565b60006122f86020836128b4565b915061230382612b68565b602082019050919050565b600061012083016000830151612327600086018261209a565b50602083015161233a6020860182612419565b50604083015184820360408601526123528282612256565b9150506060830151848203606086015261236c8282612256565b915050608083015184820360808601526123868282612256565b91505060a083015184820360a08601526123a08282612256565b91505060c083015184820360c08601526123ba8282612256565b91505060e083015184820360e08601526123d48282612256565b9150506101008301518482036101008601526123f082826120b8565b9150508091505092915050565b602082016000820151612413600085018261209a565b50505050565b61242281612959565b82525050565b61243181612959565b82525050565b600060208201905061244c60008301846120a9565b92915050565b600060408201905061246760008301856120a9565b6124746020830184612428565b9392505050565b600061010082019050612491600083018b6120a9565b61249e602083018a612428565b81810360408301526124b0818961228f565b905081810360608301526124c4818861228f565b905081810360808301526124d8818761228f565b905081810360a08301526124ec818661228f565b905081810360c0830152612500818561228f565b905081810360e0830152612514818461228f565b90509998505050505050505050565b6000602082019050818103600083015261253d8184612116565b905092915050565b6000602082019050818103600083015261255f8184612174565b905092915050565b6000602082019050818103600083015261258181846121e9565b905092915050565b600060208201905061259e6000830184612247565b92915050565b600060208201905081810360008301526125be818461228f565b905092915050565b600060808201905081810360008301526125e0818761228f565b90506125ef60208301866120a9565b8181036040830152612601818561228f565b90508181036060830152612615818461228f565b905095945050505050565b6000604082019050818103600083015261263a818561228f565b90506126496020830184612428565b9392505050565b60006020820190508181036000830152612669816122c8565b9050919050565b60006020820190508181036000830152612689816122eb565b9050919050565b60006020820190506126a56000830184612428565b92915050565b6000610100820190506126c1600083018b612428565b81810360208301526126d3818a61228f565b905081810360408301526126e7818961228f565b905081810360608301526126fb818861228f565b9050818103608083015261270f818761228f565b905081810360a0830152612723818661228f565b905081810360c0830152612737818561228f565b905081810360e083015261274b8184612116565b90509998505050505050505050565b6000612764612775565b90506127708282612a01565b919050565b6000604051905090565b600067ffffffffffffffff82111561279a57612799612ad9565b5b602082029050602081019050919050565b600067ffffffffffffffff8211156127c6576127c5612ad9565b5b6127cf82612b08565b9050602081019050919050565b6000819050602082019050919050565b6000819050602082019050919050565b6000819050602082019050919050565b600081519050919050565b600081519050919050565b600081519050919050565b600081519050919050565b6000602082019050919050565b6000602082019050919050565b6000602082019050919050565b600082825260208201905092915050565b600082825260208201905092915050565b600082825260208201905092915050565b600082825260208201905092915050565b600082825260208201905092915050565b600082825260208201905092915050565b60006128d082612959565b91506128db83612959565b9250827fffffffffffffffffffffffffffffffffffffffffffffffffffffffffffffffff038211156129105761290f612a7b565b5b828201905092915050565b600061292682612939565b9050919050565b60008115159050919050565b600073ffffffffffffffffffffffffffffffffffffffff82169050919050565b6000819050919050565b82818337600083830152505050565b60005b83811015612990578082015181840152602081019050612975565b8381111561299f576000848401525b50505050565b60006129b082612959565b915060008214156129c4576129c3612a7b565b5b600182039050919050565b600060028204905060018216806129e757607f821691505b602082108114156129fb576129fa612aaa565b5b50919050565b612a0a82612b08565b810181811067ffffffffffffffff82111715612a2957612a28612ad9565b5b80604052505050565b6000612a3d82612959565b91507fffffffffffffffffffffffffffffffffffffffffffffffffffffffffffffffff821415612a7057612a6f612a7b565b5b600182019050919050565b7f4e487b7100000000000000000000000000000000000000000000000000000000600052601160045260246000fd5b7f4e487b7100000000000000000000000000000000000000000000000000000000600052602260045260246000fd5b7f4e487b7100000000000000000000000000000000000000000000000000000000600052604160045260246000fd5b6000601f19601f8301169050919050565b7f4f776e61626c653a206e6577206f776e657220697320746865207a65726f206160008201527f6464726573730000000000000000000000000000000000000000000000000000602082015250565b7f4f776e61626c653a2063616c6c6572206973206e6f7420746865206f776e6572600082015250565b612b9a8161291b565b8114612ba557600080fd5b50565b612bb181612959565b8114612bbc57600080fd5b5056fea26469706673582212208bc03738b8faf3c83a8a3107d5d19c8ec112028a9c117b4081a57ca45a129dd864736f6c63430008040033",
  "linkReferences": {},
  "deployedLinkReferences": {}
}