{
  "_format": "hh-sol-artifact-1",
  "contractName": "sagitaPortal",
  "sourceName": "contracts/sagita.sol",
  "abi": [
    {
      "inputs": [],
      "stateMutability": "payable",
      "type": "constructor"
    },
    {
      "anonymous": false,
      "inputs": [
        {
          "indexed": true,
          "internalType": "address",
          "name": "indexer",
          "type": "address"
        },
        {
          "indexed": false,
          "internalType": "uint256",
          "name": "timestamp",
          "type": "uint256"
        },
        {
          "indexed": false,
          "internalType": "string",
          "name": "parentname",
          "type": "string"
        },
        {
          "indexed": false,
          "internalType": "string",
          "name": "parentcontract",
          "type": "string"
        },
        {
          "indexed": false,
          "internalType": "string",
          "name": "childname",
          "type": "string"
        },
        {
          "indexed": false,
          "internalType": "string",
          "name": "childcontract",
          "type": "string"
        },
        {
          "indexed": false,
          "internalType": "address[]",
          "name": "approvers",
          "type": "address[]"
        }
      ],
      "name": "NewEdge",
      "type": "event"
    },
    {
      "anonymous": false,
      "inputs": [
        {
          "indexed": true,
          "internalType": "address",
          "name": "previousOwner",
          "type": "address"
        },
        {
          "indexed": true,
          "internalType": "address",
          "name": "newOwner",
          "type": "address"
        }
      ],
      "name": "OwnershipTransferred",
      "type": "event"
    },
    {
      "anonymous": false,
      "inputs": [
        {
          "indexed": false,
          "internalType": "address",
          "name": "account",
          "type": "address"
        }
      ],
      "name": "Paused",
      "type": "event"
    },
    {
      "anonymous": false,
      "inputs": [
        {
          "indexed": false,
          "internalType": "address",
          "name": "",
          "type": "address"
        },
        {
          "indexed": false,
          "internalType": "uint256",
          "name": "",
          "type": "uint256"
        }
      ],
      "name": "Received",
      "type": "event"
    },
    {
      "anonymous": false,
      "inputs": [
        {
          "indexed": false,
          "internalType": "address",
          "name": "account",
          "type": "address"
        }
      ],
      "name": "Unpaused",
      "type": "event"
    },
    {
      "inputs": [
        {
          "internalType": "string",
          "name": "_parentname",
          "type": "string"
        },
        {
          "internalType": "string",
          "name": "_parentcontract",
          "type": "string"
        },
        {
          "internalType": "string",
          "name": "_childname",
          "type": "string"
        },
        {
          "internalType": "string",
          "name": "_childcontract",
          "type": "string"
        },
        {
          "internalType": "address[]",
          "name": "_approvers",
          "type": "address[]"
        }
      ],
      "name": "addEdge",
      "outputs": [],
      "stateMutability": "nonpayable",
      "type": "function"
    },
    {
      "inputs": [
        {
          "internalType": "uint256",
          "name": "_indexId",
          "type": "uint256"
        }
      ],
      "name": "approve",
      "outputs": [],
      "stateMutability": "nonpayable",
      "type": "function"
    },
    {
      "inputs": [],
      "name": "checkValidator",
      "outputs": [
        {
          "internalType": "bool",
          "name": "",
          "type": "bool"
        }
      ],
      "stateMutability": "view",
      "type": "function"
    },
    {
      "inputs": [
        {
          "internalType": "address",
          "name": "_account",
          "type": "address"
        }
      ],
      "name": "deleteValidator",
      "outputs": [],
      "stateMutability": "nonpayable",
      "type": "function"
    },
    {
      "inputs": [
        {
          "internalType": "uint256",
          "name": "",
          "type": "uint256"
        }
      ],
      "name": "edges",
      "outputs": [
        {
          "internalType": "address",
          "name": "indexer",
          "type": "address"
        },
        {
          "internalType": "uint256",
          "name": "timestamp",
          "type": "uint256"
        },
        {
          "internalType": "string",
          "name": "parentname",
          "type": "string"
        },
        {
          "internalType": "string",
          "name": "parentcontract",
          "type": "string"
        },
        {
          "internalType": "string",
          "name": "childname",
          "type": "string"
        },
        {
          "internalType": "string",
          "name": "childcontract",
          "type": "string"
        }
      ],
      "stateMutability": "view",
      "type": "function"
    },
    {
      "inputs": [],
      "name": "getAllEdges",
      "outputs": [
        {
          "components": [
            {
              "internalType": "address",
              "name": "indexer",
              "type": "address"
            },
            {
              "internalType": "uint256",
              "name": "timestamp",
              "type": "uint256"
            },
            {
              "internalType": "string",
              "name": "parentname",
              "type": "string"
            },
            {
              "internalType": "string",
              "name": "parentcontract",
              "type": "string"
            },
            {
              "internalType": "string",
              "name": "childname",
              "type": "string"
            },
            {
              "internalType": "string",
              "name": "childcontract",
              "type": "string"
            },
            {
              "internalType": "address[]",
              "name": "approvers",
              "type": "address[]"
            }
          ],
          "internalType": "struct sagitaPortal.EdgeIndex[]",
          "name": "",
          "type": "tuple[]"
        }
      ],
      "stateMutability": "view",
      "type": "function"
    },
    {
      "inputs": [],
      "name": "getAllUsers",
      "outputs": [
        {
          "components": [
            {
              "internalType": "address",
              "name": "account",
              "type": "address"
            }
          ],
          "internalType": "struct sagitaPortal.User[]",
          "name": "",
          "type": "tuple[]"
        }
      ],
      "stateMutability": "view",
      "type": "function"
    },
    {
      "inputs": [],
      "name": "getAllValidators",
      "outputs": [
        {
          "internalType": "address[]",
          "name": "",
          "type": "address[]"
        }
      ],
      "stateMutability": "view",
      "type": "function"
    },
    {
      "inputs": [],
      "name": "getEdgeCount",
      "outputs": [
        {
          "internalType": "uint256",
          "name": "",
          "type": "uint256"
        }
      ],
      "stateMutability": "view",
      "type": "function"
    },
    {
      "inputs": [],
      "name": "getValidatorCount",
      "outputs": [
        {
          "internalType": "uint256",
          "name": "",
          "type": "uint256"
        }
      ],
      "stateMutability": "view",
      "type": "function"
    },
    {
      "inputs": [
        {
          "internalType": "address",
          "name": "",
          "type": "address"
        }
      ],
      "name": "isIndexer",
      "outputs": [
        {
          "internalType": "bool",
          "name": "",
          "type": "bool"
        }
      ],
      "stateMutability": "view",
      "type": "function"
    },
    {
      "inputs": [
        {
          "internalType": "address",
          "name": "",
          "type": "address"
        }
      ],
      "name": "isValidator",
      "outputs": [
        {
          "internalType": "bool",
          "name": "",
          "type": "bool"
        }
      ],
      "stateMutability": "view",
      "type": "function"
    },
    {
      "inputs": [],
      "name": "owner",
      "outputs": [
        {
          "internalType": "address",
          "name": "",
          "type": "address"
        }
      ],
      "stateMutability": "view",
      "type": "function"
    },
    {
      "inputs": [],
      "name": "paused",
      "outputs": [
        {
          "internalType": "bool",
          "name": "",
          "type": "bool"
        }
      ],
      "stateMutability": "view",
      "type": "function"
    },
    {
      "inputs": [],
      "name": "renounceOwnership",
      "outputs": [],
      "stateMutability": "nonpayable",
      "type": "function"
    },
    {
      "inputs": [
        {
          "internalType": "address",
          "name": "newOwner",
          "type": "address"
        }
      ],
      "name": "transferOwnership",
      "outputs": [],
      "stateMutability": "nonpayable",
      "type": "function"
    },
    {
      "inputs": [
        {
          "internalType": "address",
          "name": "_account",
          "type": "address"
        }
      ],
      "name": "upsertValidator",
      "outputs": [],
      "stateMutability": "nonpayable",
      "type": "function"
    },
    {
      "inputs": [
        {
          "internalType": "uint256",
          "name": "",
          "type": "uint256"
        }
      ],
      "name": "users",
      "outputs": [
        {
          "internalType": "address",
          "name": "account",
          "type": "address"
        }
      ],
      "stateMutability": "view",
      "type": "function"
    },
    {
      "stateMutability": "payable",
      "type": "receive"
    }
  ],
  "bytecode": "0x608060405262000024620000186200008f60201b60201c565b6200009760201b60201c565b60008060146101000a81548160ff021916908315150217905550620000896040518060400160405280601981526020017f57652068617665206265656e20636f6e737472756374656421000000000000008152506200015b60201b6200168e1760201c565b620002ef565b600033905090565b60008060009054906101000a900473ffffffffffffffffffffffffffffffffffffffff169050816000806101000a81548173ffffffffffffffffffffffffffffffffffffffff021916908373ffffffffffffffffffffffffffffffffffffffff1602179055508173ffffffffffffffffffffffffffffffffffffffff168173ffffffffffffffffffffffffffffffffffffffff167f8be0079c531659141344cd1fd0a4f28419497f9722a3daafe3b4186f6b6457e060405160405180910390a35050565b620001fb8160405160240162000172919062000268565b6040516020818303038152906040527f41304fac000000000000000000000000000000000000000000000000000000007bffffffffffffffffffffffffffffffffffffffffffffffffffffffff19166020820180517bffffffffffffffffffffffffffffffffffffffffffffffffffffffff8381831617835250505050620001fe60201b60201c565b50565b60008151905060006a636f6e736f6c652e6c6f679050602083016000808483855afa5050505050565b600062000234826200028c565b62000240818562000297565b935062000252818560208601620002a8565b6200025d81620002de565b840191505092915050565b6000602082019050818103600083015262000284818462000227565b905092915050565b600081519050919050565b600082825260208201905092915050565b60005b83811015620002c8578082015181840152602081019050620002ab565b83811115620002d8576000848401525b50505050565b6000601f19601f8301169050919050565b61288080620002ff6000396000f3fe60806040526004361061010c5760003560e01c80638da5cb5b11610095578063dfecb54011610064578063dfecb540146103a1578063e2842d79146103ca578063f2fde38b146103f5578063f3513a371461041e578063facd743b146104495761014c565b80638da5cb5b146102f95780639cbfc76514610324578063b759f9541461034d578063da68d55a146103765761014c565b806338f58053116100dc57806338f58053146102365780635c975abb146102615780637071688a1461028c578063715018a6146102b757806386b9fd7a146102ce5761014c565b8062baae78146101515780632c6cf4e21461019357806330465a11146101d0578063365b98b2146101f95761014c565b3661014c577f88a5966d370b9919b20f3e2c13ff65706f196a4e32cc2c12bf57088f885258743334604051610142929190612133565b60405180910390a1005b600080fd5b34801561015d57600080fd5b5061017860048036038101906101739190611d45565b610486565b60405161018a9695949392919061215c565b60405180910390f35b34801561019f57600080fd5b506101ba60048036038101906101b59190611c2d565b610712565b6040516101c7919061223f565b60405180910390f35b3480156101dc57600080fd5b506101f760048036038101906101f29190611c2d565b610732565b005b34801561020557600080fd5b50610220600480360381019061021b9190611d45565b610908565b60405161022d9190612118565b60405180910390f35b34801561024257600080fd5b5061024b610952565b6040516102589190612346565b60405180910390f35b34801561026d57600080fd5b5061027661099d565b604051610283919061223f565b60405180910390f35b34801561029857600080fd5b506102a16109b3565b6040516102ae9190612346565b60405180910390f35b3480156102c357600080fd5b506102cc6109bd565b005b3480156102da57600080fd5b506102e36109d1565b6040516102f0919061223f565b60405180910390f35b34801561030557600080fd5b5061030e610a25565b60405161031b9190612118565b60405180910390f35b34801561033057600080fd5b5061034b60048036038101906103469190611c2d565b610a4e565b005b34801561035957600080fd5b50610374600480360381019061036f9190611d45565b610ac9565b005b34801561038257600080fd5b5061038b610d0b565b60405161039891906121fb565b60405180910390f35b3480156103ad57600080fd5b506103c860048036038101906103c39190611c56565b6110de565b005b3480156103d657600080fd5b506103df6112ef565b6040516103ec919061221d565b60405180910390f35b34801561040157600080fd5b5061041c60048036038101906104179190611c2d565b6113a0565b005b34801561042a57600080fd5b50610433611424565b60405161044091906121d9565b60405180910390f35b34801561045557600080fd5b50610470600480360381019061046b9190611c2d565b61166e565b60405161047d919061223f565b60405180910390f35b6003818154811061049657600080fd5b90600052602060002090600702016000915090508060000160009054906101000a900473ffffffffffffffffffffffffffffffffffffffff16908060010154908060020180546104e59061265a565b80601f01602080910402602001604051908101604052809291908181526020018280546105119061265a565b801561055e5780601f106105335761010080835404028352916020019161055e565b820191906000526020600020905b81548152906001019060200180831161054157829003601f168201915b5050505050908060030180546105739061265a565b80601f016020809104026020016040519081016040528092919081815260200182805461059f9061265a565b80156105ec5780601f106105c1576101008083540402835291602001916105ec565b820191906000526020600020905b8154815290600101906020018083116105cf57829003601f168201915b5050505050908060040180546106019061265a565b80601f016020809104026020016040519081016040528092919081815260200182805461062d9061265a565b801561067a5780601f1061064f5761010080835404028352916020019161067a565b820191906000526020600020905b81548152906001019060200180831161065d57829003601f168201915b50505050509080600501805461068f9061265a565b80601f01602080910402602001604051908101604052809291908181526020018280546106bb9061265a565b80156107085780601f106106dd57610100808354040283529160200191610708565b820191906000526020600020905b8154815290600101906020018083116106eb57829003601f168201915b5050505050905086565b60056020528060005260406000206000915054906101000a900460ff1681565b61073a611727565b6001600660008373ffffffffffffffffffffffffffffffffffffffff1673ffffffffffffffffffffffffffffffffffffffff16815260200190815260200160002060006101000a81548160ff021916908315150217905550600260008154809291906107a5906126bd565b919050555060005b60048054905081101561086e578173ffffffffffffffffffffffffffffffffffffffff166004828154811061080b577f4e487b7100000000000000000000000000000000000000000000000000000000600052603260045260246000fd5b9060005260206000200160000160009054906101000a900473ffffffffffffffffffffffffffffffffffffffff1673ffffffffffffffffffffffffffffffffffffffff16141561085b5750610905565b8080610866906126bd565b9150506107ad565b50600460405180602001604052808373ffffffffffffffffffffffffffffffffffffffff168152509080600181540180825580915050600190039060005260206000200160009091909190915060008201518160000160006101000a81548173ffffffffffffffffffffffffffffffffffffffff021916908373ffffffffffffffffffffffffffffffffffffffff16021790555050505b50565b6004818154811061091857600080fd5b906000526020600020016000915090508060000160009054906101000a900473ffffffffffffffffffffffffffffffffffffffff16905081565b60006109956040518060400160405280601381526020017f5765206861766520256420696e646578657321000000000000000000000000008152506001546117a5565b600154905090565b60008060149054906101000a900460ff16905090565b6000600254905090565b6109c5611727565b6109cf6000611841565b565b6000600660003373ffffffffffffffffffffffffffffffffffffffff1673ffffffffffffffffffffffffffffffffffffffff16815260200190815260200160002060009054906101000a900460ff16905090565b60008060009054906101000a900473ffffffffffffffffffffffffffffffffffffffff16905090565b610a56611727565b6000600660008373ffffffffffffffffffffffffffffffffffffffff1673ffffffffffffffffffffffffffffffffffffffff16815260200190815260200160002060006101000a81548160ff02191690831515021790555060026000815480929190610ac190612630565b919050555050565b60005b60038281548110610b06577f4e487b7100000000000000000000000000000000000000000000000000000000600052603260045260246000fd5b906000526020600020906007020160060180549050811015610c1c573373ffffffffffffffffffffffffffffffffffffffff1660038381548110610b73577f4e487b7100000000000000000000000000000000000000000000000000000000600052603260045260246000fd5b90600052602060002090600702016006018281548110610bbc577f4e487b7100000000000000000000000000000000000000000000000000000000600052603260045260246000fd5b9060005260206000200160009054906101000a900473ffffffffffffffffffffffffffffffffffffffff1673ffffffffffffffffffffffffffffffffffffffff161415610c095750610d08565b8080610c14906126bd565b915050610acc565b5060038181548110610c57577f4e487b7100000000000000000000000000000000000000000000000000000000600052603260045260246000fd5b9060005260206000209060070201600601339080600181540180825580915050600190039060005260206000200160009091909190916101000a81548173ffffffffffffffffffffffffffffffffffffffff021916908373ffffffffffffffffffffffffffffffffffffffff160217905550610d076040518060400160405280600581526020017f616464656400000000000000000000000000000000000000000000000000000081525061168e565b5b50565b6060610d4b6040518060400160405280600d81526020017f67657420616c6c2065646765730000000000000000000000000000000000000081525061168e565b6003805480602002602001604051908101604052809291908181526020016000905b828210156110d557838290600052602060002090600702016040518060e00160405290816000820160009054906101000a900473ffffffffffffffffffffffffffffffffffffffff1673ffffffffffffffffffffffffffffffffffffffff1673ffffffffffffffffffffffffffffffffffffffff16815260200160018201548152602001600282018054610e009061265a565b80601f0160208091040260200160405190810160405280929190818152602001828054610e2c9061265a565b8015610e795780601f10610e4e57610100808354040283529160200191610e79565b820191906000526020600020905b815481529060010190602001808311610e5c57829003601f168201915b50505050508152602001600382018054610e929061265a565b80601f0160208091040260200160405190810160405280929190818152602001828054610ebe9061265a565b8015610f0b5780601f10610ee057610100808354040283529160200191610f0b565b820191906000526020600020905b815481529060010190602001808311610eee57829003601f168201915b50505050508152602001600482018054610f249061265a565b80601f0160208091040260200160405190810160405280929190818152602001828054610f509061265a565b8015610f9d5780601f10610f7257610100808354040283529160200191610f9d565b820191906000526020600020905b815481529060010190602001808311610f8057829003601f168201915b50505050508152602001600582018054610fb69061265a565b80601f0160208091040260200160405190810160405280929190818152602001828054610fe29061265a565b801561102f5780601f106110045761010080835404028352916020019161102f565b820191906000526020600020905b81548152906001019060200180831161101257829003601f168201915b50505050508152602001600682018054806020026020016040519081016040528092919081815260200182805480156110bd57602002820191906000526020600020905b8160009054906101000a900473ffffffffffffffffffffffffffffffffffffffff1673ffffffffffffffffffffffffffffffffffffffff1681526020019060010190808311611073575b50505050508152505081526020019060010190610d6d565b50505050905090565b60018060008282546110f09190612550565b925050819055506111386040518060400160405280601a81526020017f2573206164646564206564676520772f2020257320746f202573000000000000815250338786611905565b60036040518060e001604052803373ffffffffffffffffffffffffffffffffffffffff16815260200142815260200187815260200186815260200185815260200184815260200183815250908060018154018082558091505060019003906000526020600020906007020160009091909190915060008201518160000160006101000a81548173ffffffffffffffffffffffffffffffffffffffff021916908373ffffffffffffffffffffffffffffffffffffffff1602179055506020820151816001015560408201518160020190805190602001906112199291906119d8565b5060608201518160030190805190602001906112369291906119d8565b5060808201518160040190805190602001906112539291906119d8565b5060a08201518160050190805190602001906112709291906119d8565b5060c082015181600601908051906020019061128d929190611a5e565b5050503373ffffffffffffffffffffffffffffffffffffffff167f16d6d4de8fc9a8e74689f3757b017ea9749fd85b887b87d631a4334915311f8f4287878787876040516112e096959493929190612361565b60405180910390a25050505050565b60606004805480602002602001604051908101604052809291908181526020016000905b82821015611397578382906000526020600020016040518060200160405290816000820160009054906101000a900473ffffffffffffffffffffffffffffffffffffffff1673ffffffffffffffffffffffffffffffffffffffff1673ffffffffffffffffffffffffffffffffffffffff168152505081526020019060010190611313565b50505050905090565b6113a8611727565b600073ffffffffffffffffffffffffffffffffffffffff168173ffffffffffffffffffffffffffffffffffffffff161415611418576040517f08c379a000000000000000000000000000000000000000000000000000000000815260040161140f90612306565b60405180910390fd5b61142181611841565b50565b6060600060048054905067ffffffffffffffff81111561146d577f4e487b7100000000000000000000000000000000000000000000000000000000600052604160045260246000fd5b60405190808252806020026020018201604052801561149b5781602001602082028036833780820191505090505b5090506000805b6004805490508110156116655760066000600483815481106114ed577f4e487b7100000000000000000000000000000000000000000000000000000000600052603260045260246000fd5b9060005260206000200160000160009054906101000a900473ffffffffffffffffffffffffffffffffffffffff1673ffffffffffffffffffffffffffffffffffffffff1673ffffffffffffffffffffffffffffffffffffffff16815260200190815260200160002060009054906101000a900460ff161561165257600481815481106115a2577f4e487b7100000000000000000000000000000000000000000000000000000000600052603260045260246000fd5b9060005260206000200160000160009054906101000a900473ffffffffffffffffffffffffffffffffffffffff16838381518110611609577f4e487b7100000000000000000000000000000000000000000000000000000000600052603260045260246000fd5b602002602001019073ffffffffffffffffffffffffffffffffffffffff16908173ffffffffffffffffffffffffffffffffffffffff1681525050818061164e906126bd565b9250505b808061165d906126bd565b9150506114a2565b50819250505090565b60066020528060005260406000206000915054906101000a900460ff1681565b611724816040516024016116a2919061225a565b6040516020818303038152906040527f41304fac000000000000000000000000000000000000000000000000000000007bffffffffffffffffffffffffffffffffffffffffffffffffffffffff19166020820180517bffffffffffffffffffffffffffffffffffffffffffffffffffffffff83818316178352505050506119a7565b50565b61172f6119d0565b73ffffffffffffffffffffffffffffffffffffffff1661174d610a25565b73ffffffffffffffffffffffffffffffffffffffff16146117a3576040517f08c379a000000000000000000000000000000000000000000000000000000000815260040161179a90612326565b60405180910390fd5b565b61183d82826040516024016117bb9291906122d6565b6040516020818303038152906040527f9710a9d0000000000000000000000000000000000000000000000000000000007bffffffffffffffffffffffffffffffffffffffffffffffffffffffff19166020820180517bffffffffffffffffffffffffffffffffffffffffffffffffffffffff83818316178352505050506119a7565b5050565b60008060009054906101000a900473ffffffffffffffffffffffffffffffffffffffff169050816000806101000a81548173ffffffffffffffffffffffffffffffffffffffff021916908373ffffffffffffffffffffffffffffffffffffffff1602179055508173ffffffffffffffffffffffffffffffffffffffff168173ffffffffffffffffffffffffffffffffffffffff167f8be0079c531659141344cd1fd0a4f28419497f9722a3daafe3b4186f6b6457e060405160405180910390a35050565b6119a18484848460405160240161191f949392919061227c565b6040516020818303038152906040527f245986f2000000000000000000000000000000000000000000000000000000007bffffffffffffffffffffffffffffffffffffffffffffffffffffffff19166020820180517bffffffffffffffffffffffffffffffffffffffffffffffffffffffff83818316178352505050506119a7565b50505050565b60008151905060006a636f6e736f6c652e6c6f679050602083016000808483855afa5050505050565b600033905090565b8280546119e49061265a565b90600052602060002090601f016020900481019282611a065760008555611a4d565b82601f10611a1f57805160ff1916838001178555611a4d565b82800160010185558215611a4d579182015b82811115611a4c578251825591602001919060010190611a31565b5b509050611a5a9190611ae8565b5090565b828054828255906000526020600020908101928215611ad7579160200282015b82811115611ad65782518260006101000a81548173ffffffffffffffffffffffffffffffffffffffff021916908373ffffffffffffffffffffffffffffffffffffffff16021790555091602001919060010190611a7e565b5b509050611ae49190611ae8565b5090565b5b80821115611b01576000816000905550600101611ae9565b5090565b6000611b18611b138461240a565b6123e5565b90508083825260208201905082856020860282011115611b3757600080fd5b60005b85811015611b675781611b4d8882611baf565b845260208401935060208301925050600181019050611b3a565b5050509392505050565b6000611b84611b7f84612436565b6123e5565b905082815260208101848484011115611b9c57600080fd5b611ba78482856125ee565b509392505050565b600081359050611bbe8161281c565b92915050565b600082601f830112611bd557600080fd5b8135611be5848260208601611b05565b91505092915050565b600082601f830112611bff57600080fd5b8135611c0f848260208601611b71565b91505092915050565b600081359050611c2781612833565b92915050565b600060208284031215611c3f57600080fd5b6000611c4d84828501611baf565b91505092915050565b600080600080600060a08688031215611c6e57600080fd5b600086013567ffffffffffffffff811115611c8857600080fd5b611c9488828901611bee565b955050602086013567ffffffffffffffff811115611cb157600080fd5b611cbd88828901611bee565b945050604086013567ffffffffffffffff811115611cda57600080fd5b611ce688828901611bee565b935050606086013567ffffffffffffffff811115611d0357600080fd5b611d0f88828901611bee565b925050608086013567ffffffffffffffff811115611d2c57600080fd5b611d3888828901611bc4565b9150509295509295909350565b600060208284031215611d5757600080fd5b6000611d6584828501611c18565b91505092915050565b6000611d7a8383611db2565b60208301905092915050565b6000611d928383612026565b905092915050565b6000611da683836120de565b60208301905092915050565b611dbb816125a6565b82525050565b611dca816125a6565b82525050565b6000611ddb82612497565b611de581856124ea565b9350611df083612467565b8060005b83811015611e21578151611e088882611d6e565b9750611e13836124c3565b925050600181019050611df4565b5085935050505092915050565b6000611e3982612497565b611e4381856124fb565b9350611e4e83612467565b8060005b83811015611e7f578151611e668882611d6e565b9750611e71836124c3565b925050600181019050611e52565b5085935050505092915050565b6000611e97826124a2565b611ea1818561250c565b935083602082028501611eb385612477565b8060005b85811015611eef5784840389528151611ed08582611d86565b9450611edb836124d0565b925060208a01995050600181019050611eb7565b50829750879550505050505092915050565b6000611f0c826124ad565b611f16818561251d565b9350611f2183612487565b8060005b83811015611f52578151611f398882611d9a565b9750611f44836124dd565b925050600181019050611f25565b5085935050505092915050565b611f68816125b8565b82525050565b6000611f79826124b8565b611f83818561252e565b9350611f938185602086016125fd565b611f9c81612793565b840191505092915050565b6000611fb2826124b8565b611fbc818561253f565b9350611fcc8185602086016125fd565b611fd581612793565b840191505092915050565b6000611fed60268361253f565b9150611ff8826127a4565b604082019050919050565b600061201060208361253f565b915061201b826127f3565b602082019050919050565b600060e08301600083015161203e6000860182611db2565b50602083015161205160208601826120fa565b50604083015184820360408601526120698282611f6e565b915050606083015184820360608601526120838282611f6e565b9150506080830151848203608086015261209d8282611f6e565b91505060a083015184820360a08601526120b78282611f6e565b91505060c083015184820360c08601526120d18282611dd0565b9150508091505092915050565b6020820160008201516120f46000850182611db2565b50505050565b612103816125e4565b82525050565b612112816125e4565b82525050565b600060208201905061212d6000830184611dc1565b92915050565b60006040820190506121486000830185611dc1565b6121556020830184612109565b9392505050565b600060c0820190506121716000830189611dc1565b61217e6020830188612109565b81810360408301526121908187611fa7565b905081810360608301526121a48186611fa7565b905081810360808301526121b88185611fa7565b905081810360a08301526121cc8184611fa7565b9050979650505050505050565b600060208201905081810360008301526121f38184611e2e565b905092915050565b600060208201905081810360008301526122158184611e8c565b905092915050565b600060208201905081810360008301526122378184611f01565b905092915050565b60006020820190506122546000830184611f5f565b92915050565b600060208201905081810360008301526122748184611fa7565b905092915050565b600060808201905081810360008301526122968187611fa7565b90506122a56020830186611dc1565b81810360408301526122b78185611fa7565b905081810360608301526122cb8184611fa7565b905095945050505050565b600060408201905081810360008301526122f08185611fa7565b90506122ff6020830184612109565b9392505050565b6000602082019050818103600083015261231f81611fe0565b9050919050565b6000602082019050818103600083015261233f81612003565b9050919050565b600060208201905061235b6000830184612109565b92915050565b600060c0820190506123766000830189612109565b81810360208301526123888188611fa7565b9050818103604083015261239c8187611fa7565b905081810360608301526123b08186611fa7565b905081810360808301526123c48185611fa7565b905081810360a08301526123d88184611e2e565b9050979650505050505050565b60006123ef612400565b90506123fb828261268c565b919050565b6000604051905090565b600067ffffffffffffffff82111561242557612424612764565b5b602082029050602081019050919050565b600067ffffffffffffffff82111561245157612450612764565b5b61245a82612793565b9050602081019050919050565b6000819050602082019050919050565b6000819050602082019050919050565b6000819050602082019050919050565b600081519050919050565b600081519050919050565b600081519050919050565b600081519050919050565b6000602082019050919050565b6000602082019050919050565b6000602082019050919050565b600082825260208201905092915050565b600082825260208201905092915050565b600082825260208201905092915050565b600082825260208201905092915050565b600082825260208201905092915050565b600082825260208201905092915050565b600061255b826125e4565b9150612566836125e4565b9250827fffffffffffffffffffffffffffffffffffffffffffffffffffffffffffffffff0382111561259b5761259a612706565b5b828201905092915050565b60006125b1826125c4565b9050919050565b60008115159050919050565b600073ffffffffffffffffffffffffffffffffffffffff82169050919050565b6000819050919050565b82818337600083830152505050565b60005b8381101561261b578082015181840152602081019050612600565b8381111561262a576000848401525b50505050565b600061263b826125e4565b9150600082141561264f5761264e612706565b5b600182039050919050565b6000600282049050600182168061267257607f821691505b6020821081141561268657612685612735565b5b50919050565b61269582612793565b810181811067ffffffffffffffff821117156126b4576126b3612764565b5b80604052505050565b60006126c8826125e4565b91507fffffffffffffffffffffffffffffffffffffffffffffffffffffffffffffffff8214156126fb576126fa612706565b5b600182019050919050565b7f4e487b7100000000000000000000000000000000000000000000000000000000600052601160045260246000fd5b7f4e487b7100000000000000000000000000000000000000000000000000000000600052602260045260246000fd5b7f4e487b7100000000000000000000000000000000000000000000000000000000600052604160045260246000fd5b6000601f19601f8301169050919050565b7f4f776e61626c653a206e6577206f776e657220697320746865207a65726f206160008201527f6464726573730000000000000000000000000000000000000000000000000000602082015250565b7f4f776e61626c653a2063616c6c6572206973206e6f7420746865206f776e6572600082015250565b612825816125a6565b811461283057600080fd5b50565b61283c816125e4565b811461284757600080fd5b5056fea264697066735822122047697d1c38d328592fca005d286ec5611b4cd95491b4fe20a7cda10d95136c0f64736f6c63430008040033",
  "linkReferences": {},
  "deployedLinkReferences": {}
}