{
  "_format": "hh-sol-artifact-1",
  "contractName": "sagitaPortal",
  "sourceName": "contracts/sagita.sol",
  "abi": [
    {
      "inputs": [],
      "stateMutability": "payable",
      "type": "constructor"
    },
    {
      "anonymous": false,
      "inputs": [
        {
          "indexed": true,
          "internalType": "address",
          "name": "indexer",
          "type": "address"
        },
        {
          "indexed": false,
          "internalType": "uint256",
          "name": "timestamp",
          "type": "uint256"
        },
        {
          "indexed": false,
          "internalType": "string",
          "name": "parentname",
          "type": "string"
        },
        {
          "indexed": false,
          "internalType": "string",
          "name": "parenturl",
          "type": "string"
        },
        {
          "indexed": false,
          "internalType": "string",
          "name": "parentcontract",
          "type": "string"
        },
        {
          "indexed": false,
          "internalType": "string",
          "name": "childname",
          "type": "string"
        },
        {
          "indexed": false,
          "internalType": "string",
          "name": "childurl",
          "type": "string"
        },
        {
          "indexed": false,
          "internalType": "string",
          "name": "childcontract",
          "type": "string"
        },
        {
          "indexed": false,
          "internalType": "address[]",
          "name": "approvers",
          "type": "address[]"
        }
      ],
      "name": "NewEdge",
      "type": "event"
    },
    {
      "anonymous": false,
      "inputs": [
        {
          "indexed": true,
          "internalType": "address",
          "name": "previousOwner",
          "type": "address"
        },
        {
          "indexed": true,
          "internalType": "address",
          "name": "newOwner",
          "type": "address"
        }
      ],
      "name": "OwnershipTransferred",
      "type": "event"
    },
    {
      "anonymous": false,
      "inputs": [
        {
          "indexed": false,
          "internalType": "address",
          "name": "account",
          "type": "address"
        }
      ],
      "name": "Paused",
      "type": "event"
    },
    {
      "anonymous": false,
      "inputs": [
        {
          "indexed": false,
          "internalType": "address",
          "name": "",
          "type": "address"
        },
        {
          "indexed": false,
          "internalType": "uint256",
          "name": "",
          "type": "uint256"
        }
      ],
      "name": "Received",
      "type": "event"
    },
    {
      "anonymous": false,
      "inputs": [
        {
          "indexed": false,
          "internalType": "address",
          "name": "account",
          "type": "address"
        }
      ],
      "name": "Unpaused",
      "type": "event"
    },
    {
      "inputs": [
        {
          "internalType": "string",
          "name": "_parentname",
          "type": "string"
        },
        {
          "internalType": "string",
          "name": "_parenturl",
          "type": "string"
        },
        {
          "internalType": "string",
          "name": "_parentcontract",
          "type": "string"
        },
        {
          "internalType": "string",
          "name": "_childname",
          "type": "string"
        },
        {
          "internalType": "string",
          "name": "_childurl",
          "type": "string"
        },
        {
          "internalType": "string",
          "name": "_childcontract",
          "type": "string"
        },
        {
          "internalType": "address[]",
          "name": "_approvers",
          "type": "address[]"
        }
      ],
      "name": "addEdge",
      "outputs": [],
      "stateMutability": "nonpayable",
      "type": "function"
    },
    {
      "inputs": [
        {
          "internalType": "uint256",
          "name": "_indexId",
          "type": "uint256"
        }
      ],
      "name": "approve",
      "outputs": [],
      "stateMutability": "nonpayable",
      "type": "function"
    },
    {
      "inputs": [],
      "name": "checkValidator",
      "outputs": [
        {
          "internalType": "bool",
          "name": "",
          "type": "bool"
        }
      ],
      "stateMutability": "view",
      "type": "function"
    },
    {
      "inputs": [
        {
          "internalType": "address",
          "name": "_account",
          "type": "address"
        }
      ],
      "name": "deleteValidator",
      "outputs": [],
      "stateMutability": "nonpayable",
      "type": "function"
    },
    {
      "inputs": [
        {
          "internalType": "uint256",
          "name": "",
          "type": "uint256"
        }
      ],
      "name": "edges",
      "outputs": [
        {
          "internalType": "address",
          "name": "indexer",
          "type": "address"
        },
        {
          "internalType": "uint256",
          "name": "timestamp",
          "type": "uint256"
        },
        {
          "internalType": "string",
          "name": "parentname",
          "type": "string"
        },
        {
          "internalType": "string",
          "name": "parenturl",
          "type": "string"
        },
        {
          "internalType": "string",
          "name": "parentcontract",
          "type": "string"
        },
        {
          "internalType": "string",
          "name": "childname",
          "type": "string"
        },
        {
          "internalType": "string",
          "name": "childurl",
          "type": "string"
        },
        {
          "internalType": "string",
          "name": "childcontract",
          "type": "string"
        }
      ],
      "stateMutability": "view",
      "type": "function"
    },
    {
      "inputs": [],
      "name": "getAllEdges",
      "outputs": [
        {
          "components": [
            {
              "internalType": "address",
              "name": "indexer",
              "type": "address"
            },
            {
              "internalType": "uint256",
              "name": "timestamp",
              "type": "uint256"
            },
            {
              "internalType": "string",
              "name": "parentname",
              "type": "string"
            },
            {
              "internalType": "string",
              "name": "parenturl",
              "type": "string"
            },
            {
              "internalType": "string",
              "name": "parentcontract",
              "type": "string"
            },
            {
              "internalType": "string",
              "name": "childname",
              "type": "string"
            },
            {
              "internalType": "string",
              "name": "childurl",
              "type": "string"
            },
            {
              "internalType": "string",
              "name": "childcontract",
              "type": "string"
            },
            {
              "internalType": "address[]",
              "name": "approvers",
              "type": "address[]"
            }
          ],
          "internalType": "struct sagitaPortal.EdgeIndex[]",
          "name": "",
          "type": "tuple[]"
        }
      ],
      "stateMutability": "view",
      "type": "function"
    },
    {
      "inputs": [],
      "name": "getAllUsers",
      "outputs": [
        {
          "components": [
            {
              "internalType": "address",
              "name": "account",
              "type": "address"
            }
          ],
          "internalType": "struct sagitaPortal.User[]",
          "name": "",
          "type": "tuple[]"
        }
      ],
      "stateMutability": "view",
      "type": "function"
    },
    {
      "inputs": [],
      "name": "getAllValidators",
      "outputs": [
        {
          "internalType": "address[]",
          "name": "",
          "type": "address[]"
        }
      ],
      "stateMutability": "view",
      "type": "function"
    },
    {
      "inputs": [],
      "name": "getEdgeCount",
      "outputs": [
        {
          "internalType": "uint256",
          "name": "",
          "type": "uint256"
        }
      ],
      "stateMutability": "view",
      "type": "function"
    },
    {
      "inputs": [],
      "name": "getValidatorCount",
      "outputs": [
        {
          "internalType": "uint256",
          "name": "",
          "type": "uint256"
        }
      ],
      "stateMutability": "view",
      "type": "function"
    },
    {
      "inputs": [
        {
          "internalType": "address",
          "name": "",
          "type": "address"
        }
      ],
      "name": "isIndexer",
      "outputs": [
        {
          "internalType": "bool",
          "name": "",
          "type": "bool"
        }
      ],
      "stateMutability": "view",
      "type": "function"
    },
    {
      "inputs": [
        {
          "internalType": "address",
          "name": "",
          "type": "address"
        }
      ],
      "name": "isValidator",
      "outputs": [
        {
          "internalType": "bool",
          "name": "",
          "type": "bool"
        }
      ],
      "stateMutability": "view",
      "type": "function"
    },
    {
      "inputs": [],
      "name": "owner",
      "outputs": [
        {
          "internalType": "address",
          "name": "",
          "type": "address"
        }
      ],
      "stateMutability": "view",
      "type": "function"
    },
    {
      "inputs": [],
      "name": "paused",
      "outputs": [
        {
          "internalType": "bool",
          "name": "",
          "type": "bool"
        }
      ],
      "stateMutability": "view",
      "type": "function"
    },
    {
      "inputs": [],
      "name": "renounceOwnership",
      "outputs": [],
      "stateMutability": "nonpayable",
      "type": "function"
    },
    {
      "inputs": [
        {
          "internalType": "address",
          "name": "newOwner",
          "type": "address"
        }
      ],
      "name": "transferOwnership",
      "outputs": [],
      "stateMutability": "nonpayable",
      "type": "function"
    },
    {
      "inputs": [
        {
          "internalType": "address",
          "name": "_account",
          "type": "address"
        }
      ],
      "name": "upsertValidator",
      "outputs": [],
      "stateMutability": "nonpayable",
      "type": "function"
    },
    {
      "inputs": [
        {
          "internalType": "uint256",
          "name": "",
          "type": "uint256"
        }
      ],
      "name": "users",
      "outputs": [
        {
          "internalType": "address",
          "name": "account",
          "type": "address"
        }
      ],
      "stateMutability": "view",
      "type": "function"
    },
    {
      "stateMutability": "payable",
      "type": "receive"
    }
  ],
  "bytecode": "0x608060405262000024620000186200008f60201b60201c565b6200009760201b60201c565b60008060146101000a81548160ff021916908315150217905550620000896040518060400160405280601981526020017f57652068617665206265656e20636f6e737472756374656421000000000000008152506200015b60201b620019ab1760201c565b620002ef565b600033905090565b60008060009054906101000a900473ffffffffffffffffffffffffffffffffffffffff169050816000806101000a81548173ffffffffffffffffffffffffffffffffffffffff021916908373ffffffffffffffffffffffffffffffffffffffff1602179055508173ffffffffffffffffffffffffffffffffffffffff168173ffffffffffffffffffffffffffffffffffffffff167f8be0079c531659141344cd1fd0a4f28419497f9722a3daafe3b4186f6b6457e060405160405180910390a35050565b620001fb8160405160240162000172919062000268565b6040516020818303038152906040527f41304fac000000000000000000000000000000000000000000000000000000007bffffffffffffffffffffffffffffffffffffffffffffffffffffffff19166020820180517bffffffffffffffffffffffffffffffffffffffffffffffffffffffff8381831617835250505050620001fe60201b60201c565b50565b60008151905060006a636f6e736f6c652e6c6f679050602083016000808483855afa5050505050565b600062000234826200028c565b62000240818562000297565b935062000252818560208601620002a8565b6200025d81620002de565b840191505092915050565b6000602082019050818103600083015262000284818462000227565b905092915050565b600081519050919050565b600082825260208201905092915050565b60005b83811015620002c8578082015181840152602081019050620002ab565b83811115620002d8576000848401525b50505050565b6000601f19601f8301169050919050565b612ced80620002ff6000396000f3fe60806040526004361061010c5760003560e01c806386b9fd7a11610095578063da68d55a11610064578063da68d55a146103a1578063e2842d79146103cc578063f2fde38b146103f7578063f3513a3714610420578063facd743b1461044b5761014c565b806386b9fd7a146102f95780638da5cb5b146103245780639cbfc7651461034f578063b759f954146103785761014c565b8063365b98b2116100dc578063365b98b21461022457806338f58053146102615780635c975abb1461028c5780637071688a146102b7578063715018a6146102e25761014c565b8062baae781461015157806304924cb8146101955780632c6cf4e2146101be57806330465a11146101fb5761014c565b3661014c577f88a5966d370b9919b20f3e2c13ff65706f196a4e32cc2c12bf57088f885258743334604051610142929190612501565b60405180910390a1005b600080fd5b34801561015d57600080fd5b50610178600480360381019061017391906120b9565b610488565b60405161018c98979695949392919061252a565b60405180910390f35b3480156101a157600080fd5b506101bc60048036038101906101b79190611f73565b610830565b005b3480156101ca57600080fd5b506101e560048036038101906101e09190611f4a565b610a8f565b6040516101f29190612638565b60405180910390f35b34801561020757600080fd5b50610222600480360381019061021d9190611f4a565b610aaf565b005b34801561023057600080fd5b5061024b600480360381019061024691906120b9565b610c85565b60405161025891906124e6565b60405180910390f35b34801561026d57600080fd5b50610276610ccf565b604051610283919061275f565b60405180910390f35b34801561029857600080fd5b506102a1610d1a565b6040516102ae9190612638565b60405180910390f35b3480156102c357600080fd5b506102cc610d30565b6040516102d9919061275f565b60405180910390f35b3480156102ee57600080fd5b506102f7610d3a565b005b34801561030557600080fd5b5061030e610d4e565b60405161031b9190612638565b60405180910390f35b34801561033057600080fd5b50610339610da2565b60405161034691906124e6565b60405180910390f35b34801561035b57600080fd5b5061037660048036038101906103719190611f4a565b610dcb565b005b34801561038457600080fd5b5061039f600480360381019061039a91906120b9565b610e46565b005b3480156103ad57600080fd5b506103b6611114565b6040516103c391906125f4565b60405180910390f35b3480156103d857600080fd5b506103e161160c565b6040516103ee9190612616565b60405180910390f35b34801561040357600080fd5b5061041e60048036038101906104199190611f4a565b6116bd565b005b34801561042c57600080fd5b50610435611741565b60405161044291906125d2565b60405180910390f35b34801561045757600080fd5b50610472600480360381019061046d9190611f4a565b61198b565b60405161047f9190612638565b60405180910390f35b6003818154811061049857600080fd5b90600052602060002090600902016000915090508060000160009054906101000a900473ffffffffffffffffffffffffffffffffffffffff16908060010154908060020180546104e790612a9e565b80601f016020809104026020016040519081016040528092919081815260200182805461051390612a9e565b80156105605780601f1061053557610100808354040283529160200191610560565b820191906000526020600020905b81548152906001019060200180831161054357829003601f168201915b50505050509080600301805461057590612a9e565b80601f01602080910402602001604051908101604052809291908181526020018280546105a190612a9e565b80156105ee5780601f106105c3576101008083540402835291602001916105ee565b820191906000526020600020905b8154815290600101906020018083116105d157829003601f168201915b50505050509080600401805461060390612a9e565b80601f016020809104026020016040519081016040528092919081815260200182805461062f90612a9e565b801561067c5780601f106106515761010080835404028352916020019161067c565b820191906000526020600020905b81548152906001019060200180831161065f57829003601f168201915b50505050509080600501805461069190612a9e565b80601f01602080910402602001604051908101604052809291908181526020018280546106bd90612a9e565b801561070a5780601f106106df5761010080835404028352916020019161070a565b820191906000526020600020905b8154815290600101906020018083116106ed57829003601f168201915b50505050509080600601805461071f90612a9e565b80601f016020809104026020016040519081016040528092919081815260200182805461074b90612a9e565b80156107985780601f1061076d57610100808354040283529160200191610798565b820191906000526020600020905b81548152906001019060200180831161077b57829003601f168201915b5050505050908060070180546107ad90612a9e565b80601f01602080910402602001604051908101604052809291908181526020018280546107d990612a9e565b80156108265780601f106107fb57610100808354040283529160200191610826565b820191906000526020600020905b81548152906001019060200180831161080957829003601f168201915b5050505050905088565b60018060008282546108429190612994565b9250508190555061088a6040518060400160405280601a81526020017f2573206164646564206564676520772f2020257320746f202573000000000000815250338886611a44565b60036040518061012001604052803373ffffffffffffffffffffffffffffffffffffffff16815260200142815260200189815260200188815260200187815260200186815260200185815260200184815260200183815250908060018154018082558091505060019003906000526020600020906009020160009091909190915060008201518160000160006101000a81548173ffffffffffffffffffffffffffffffffffffffff021916908373ffffffffffffffffffffffffffffffffffffffff160217905550602082015181600101556040820151816002019080519060200190610978929190611cf5565b506060820151816003019080519060200190610995929190611cf5565b5060808201518160040190805190602001906109b2929190611cf5565b5060a08201518160050190805190602001906109cf929190611cf5565b5060c08201518160060190805190602001906109ec929190611cf5565b5060e0820151816007019080519060200190610a09929190611cf5565b50610100820151816008019080519060200190610a27929190611d7b565b5050503373ffffffffffffffffffffffffffffffffffffffff167f6ec9818240bdd21aa5536868b994de69c9244d79159974d1bb9222a17a6f8e2f4289898989898989604051610a7e98979695949392919061277a565b60405180910390a250505050505050565b60056020528060005260406000206000915054906101000a900460ff1681565b610ab7611ae6565b6001600660008373ffffffffffffffffffffffffffffffffffffffff1673ffffffffffffffffffffffffffffffffffffffff16815260200190815260200160002060006101000a81548160ff02191690831515021790555060026000815480929190610b2290612b01565b919050555060005b600480549050811015610beb578173ffffffffffffffffffffffffffffffffffffffff1660048281548110610b88577f4e487b7100000000000000000000000000000000000000000000000000000000600052603260045260246000fd5b9060005260206000200160000160009054906101000a900473ffffffffffffffffffffffffffffffffffffffff1673ffffffffffffffffffffffffffffffffffffffff161415610bd85750610c82565b8080610be390612b01565b915050610b2a565b50600460405180602001604052808373ffffffffffffffffffffffffffffffffffffffff168152509080600181540180825580915050600190039060005260206000200160009091909190915060008201518160000160006101000a81548173ffffffffffffffffffffffffffffffffffffffff021916908373ffffffffffffffffffffffffffffffffffffffff16021790555050505b50565b60048181548110610c9557600080fd5b906000526020600020016000915090508060000160009054906101000a900473ffffffffffffffffffffffffffffffffffffffff16905081565b6000610d126040518060400160405280601381526020017f5765206861766520256420696e64657865732100000000000000000000000000815250600154611b64565b600154905090565b60008060149054906101000a900460ff16905090565b6000600254905090565b610d42611ae6565b610d4c6000611c00565b565b6000600660003373ffffffffffffffffffffffffffffffffffffffff1673ffffffffffffffffffffffffffffffffffffffff16815260200190815260200160002060009054906101000a900460ff16905090565b60008060009054906101000a900473ffffffffffffffffffffffffffffffffffffffff16905090565b610dd3611ae6565b6000600660008373ffffffffffffffffffffffffffffffffffffffff1673ffffffffffffffffffffffffffffffffffffffff16815260200190815260200160002060006101000a81548160ff02191690831515021790555060026000815480929190610e3e90612a74565b919050555050565b600660003373ffffffffffffffffffffffffffffffffffffffff1673ffffffffffffffffffffffffffffffffffffffff16815260200190815260200160002060009054906101000a900460ff16610ed2576040517f08c379a0000000000000000000000000000000000000000000000000000000008152600401610ec99061271f565b60405180910390fd5b60005b60038281548110610f0f577f4e487b7100000000000000000000000000000000000000000000000000000000600052603260045260246000fd5b906000526020600020906009020160080180549050811015611025573373ffffffffffffffffffffffffffffffffffffffff1660038381548110610f7c577f4e487b7100000000000000000000000000000000000000000000000000000000600052603260045260246000fd5b90600052602060002090600902016008018281548110610fc5577f4e487b7100000000000000000000000000000000000000000000000000000000600052603260045260246000fd5b9060005260206000200160009054906101000a900473ffffffffffffffffffffffffffffffffffffffff1673ffffffffffffffffffffffffffffffffffffffff1614156110125750611111565b808061101d90612b01565b915050610ed5565b5060038181548110611060577f4e487b7100000000000000000000000000000000000000000000000000000000600052603260045260246000fd5b9060005260206000209060090201600801339080600181540180825580915050600190039060005260206000200160009091909190916101000a81548173ffffffffffffffffffffffffffffffffffffffff021916908373ffffffffffffffffffffffffffffffffffffffff1602179055506111106040518060400160405280600581526020017f61646465640000000000000000000000000000000000000000000000000000008152506119ab565b5b50565b60606111546040518060400160405280600d81526020017f67657420616c6c206564676573000000000000000000000000000000000000008152506119ab565b6003805480602002602001604051908101604052809291908181526020016000905b828210156116035783829060005260206000209060090201604051806101200160405290816000820160009054906101000a900473ffffffffffffffffffffffffffffffffffffffff1673ffffffffffffffffffffffffffffffffffffffff1673ffffffffffffffffffffffffffffffffffffffff1681526020016001820154815260200160028201805461120a90612a9e565b80601f016020809104026020016040519081016040528092919081815260200182805461123690612a9e565b80156112835780601f1061125857610100808354040283529160200191611283565b820191906000526020600020905b81548152906001019060200180831161126657829003601f168201915b5050505050815260200160038201805461129c90612a9e565b80601f01602080910402602001604051908101604052809291908181526020018280546112c890612a9e565b80156113155780601f106112ea57610100808354040283529160200191611315565b820191906000526020600020905b8154815290600101906020018083116112f857829003601f168201915b5050505050815260200160048201805461132e90612a9e565b80601f016020809104026020016040519081016040528092919081815260200182805461135a90612a9e565b80156113a75780601f1061137c576101008083540402835291602001916113a7565b820191906000526020600020905b81548152906001019060200180831161138a57829003601f168201915b505050505081526020016005820180546113c090612a9e565b80601f01602080910402602001604051908101604052809291908181526020018280546113ec90612a9e565b80156114395780601f1061140e57610100808354040283529160200191611439565b820191906000526020600020905b81548152906001019060200180831161141c57829003601f168201915b5050505050815260200160068201805461145290612a9e565b80601f016020809104026020016040519081016040528092919081815260200182805461147e90612a9e565b80156114cb5780601f106114a0576101008083540402835291602001916114cb565b820191906000526020600020905b8154815290600101906020018083116114ae57829003601f168201915b505050505081526020016007820180546114e490612a9e565b80601f016020809104026020016040519081016040528092919081815260200182805461151090612a9e565b801561155d5780601f106115325761010080835404028352916020019161155d565b820191906000526020600020905b81548152906001019060200180831161154057829003601f168201915b50505050508152602001600882018054806020026020016040519081016040528092919081815260200182805480156115eb57602002820191906000526020600020905b8160009054906101000a900473ffffffffffffffffffffffffffffffffffffffff1673ffffffffffffffffffffffffffffffffffffffff16815260200190600101908083116115a1575b50505050508152505081526020019060010190611176565b50505050905090565b60606004805480602002602001604051908101604052809291908181526020016000905b828210156116b4578382906000526020600020016040518060200160405290816000820160009054906101000a900473ffffffffffffffffffffffffffffffffffffffff1673ffffffffffffffffffffffffffffffffffffffff1673ffffffffffffffffffffffffffffffffffffffff168152505081526020019060010190611630565b50505050905090565b6116c5611ae6565b600073ffffffffffffffffffffffffffffffffffffffff168173ffffffffffffffffffffffffffffffffffffffff161415611735576040517f08c379a000000000000000000000000000000000000000000000000000000000815260040161172c906126ff565b60405180910390fd5b61173e81611c00565b50565b6060600060048054905067ffffffffffffffff81111561178a577f4e487b7100000000000000000000000000000000000000000000000000000000600052604160045260246000fd5b6040519080825280602002602001820160405280156117b85781602001602082028036833780820191505090505b5090506000805b60048054905081101561198257600660006004838154811061180a577f4e487b7100000000000000000000000000000000000000000000000000000000600052603260045260246000fd5b9060005260206000200160000160009054906101000a900473ffffffffffffffffffffffffffffffffffffffff1673ffffffffffffffffffffffffffffffffffffffff1673ffffffffffffffffffffffffffffffffffffffff16815260200190815260200160002060009054906101000a900460ff161561196f57600481815481106118bf577f4e487b7100000000000000000000000000000000000000000000000000000000600052603260045260246000fd5b9060005260206000200160000160009054906101000a900473ffffffffffffffffffffffffffffffffffffffff16838381518110611926577f4e487b7100000000000000000000000000000000000000000000000000000000600052603260045260246000fd5b602002602001019073ffffffffffffffffffffffffffffffffffffffff16908173ffffffffffffffffffffffffffffffffffffffff1681525050818061196b90612b01565b9250505b808061197a90612b01565b9150506117bf565b50819250505090565b60066020528060005260406000206000915054906101000a900460ff1681565b611a41816040516024016119bf9190612653565b6040516020818303038152906040527f41304fac000000000000000000000000000000000000000000000000000000007bffffffffffffffffffffffffffffffffffffffffffffffffffffffff19166020820180517bffffffffffffffffffffffffffffffffffffffffffffffffffffffff8381831617835250505050611cc4565b50565b611ae084848484604051602401611a5e9493929190612675565b6040516020818303038152906040527f245986f2000000000000000000000000000000000000000000000000000000007bffffffffffffffffffffffffffffffffffffffffffffffffffffffff19166020820180517bffffffffffffffffffffffffffffffffffffffffffffffffffffffff8381831617835250505050611cc4565b50505050565b611aee611ced565b73ffffffffffffffffffffffffffffffffffffffff16611b0c610da2565b73ffffffffffffffffffffffffffffffffffffffff1614611b62576040517f08c379a0000000000000000000000000000000000000000000000000000000008152600401611b599061273f565b60405180910390fd5b565b611bfc8282604051602401611b7a9291906126cf565b6040516020818303038152906040527f9710a9d0000000000000000000000000000000000000000000000000000000007bffffffffffffffffffffffffffffffffffffffffffffffffffffffff19166020820180517bffffffffffffffffffffffffffffffffffffffffffffffffffffffff8381831617835250505050611cc4565b5050565b60008060009054906101000a900473ffffffffffffffffffffffffffffffffffffffff169050816000806101000a81548173ffffffffffffffffffffffffffffffffffffffff021916908373ffffffffffffffffffffffffffffffffffffffff1602179055508173ffffffffffffffffffffffffffffffffffffffff168173ffffffffffffffffffffffffffffffffffffffff167f8be0079c531659141344cd1fd0a4f28419497f9722a3daafe3b4186f6b6457e060405160405180910390a35050565b60008151905060006a636f6e736f6c652e6c6f679050602083016000808483855afa5050505050565b600033905090565b828054611d0190612a9e565b90600052602060002090601f016020900481019282611d235760008555611d6a565b82601f10611d3c57805160ff1916838001178555611d6a565b82800160010185558215611d6a579182015b82811115611d69578251825591602001919060010190611d4e565b5b509050611d779190611e05565b5090565b828054828255906000526020600020908101928215611df4579160200282015b82811115611df35782518260006101000a81548173ffffffffffffffffffffffffffffffffffffffff021916908373ffffffffffffffffffffffffffffffffffffffff16021790555091602001919060010190611d9b565b5b509050611e019190611e05565b5090565b5b80821115611e1e576000816000905550600101611e06565b5090565b6000611e35611e308461284e565b612829565b90508083825260208201905082856020860282011115611e5457600080fd5b60005b85811015611e845781611e6a8882611ecc565b845260208401935060208301925050600181019050611e57565b5050509392505050565b6000611ea1611e9c8461287a565b612829565b905082815260208101848484011115611eb957600080fd5b611ec4848285612a32565b509392505050565b600081359050611edb81612c89565b92915050565b600082601f830112611ef257600080fd5b8135611f02848260208601611e22565b91505092915050565b600082601f830112611f1c57600080fd5b8135611f2c848260208601611e8e565b91505092915050565b600081359050611f4481612ca0565b92915050565b600060208284031215611f5c57600080fd5b6000611f6a84828501611ecc565b91505092915050565b600080600080600080600060e0888a031215611f8e57600080fd5b600088013567ffffffffffffffff811115611fa857600080fd5b611fb48a828b01611f0b565b975050602088013567ffffffffffffffff811115611fd157600080fd5b611fdd8a828b01611f0b565b965050604088013567ffffffffffffffff811115611ffa57600080fd5b6120068a828b01611f0b565b955050606088013567ffffffffffffffff81111561202357600080fd5b61202f8a828b01611f0b565b945050608088013567ffffffffffffffff81111561204c57600080fd5b6120588a828b01611f0b565b93505060a088013567ffffffffffffffff81111561207557600080fd5b6120818a828b01611f0b565b92505060c088013567ffffffffffffffff81111561209e57600080fd5b6120aa8a828b01611ee1565b91505092959891949750929550565b6000602082840312156120cb57600080fd5b60006120d984828501611f35565b91505092915050565b60006120ee8383612126565b60208301905092915050565b600061210683836123bd565b905092915050565b600061211a83836124ac565b60208301905092915050565b61212f816129ea565b82525050565b61213e816129ea565b82525050565b600061214f826128db565b612159818561292e565b9350612164836128ab565b8060005b8381101561219557815161217c88826120e2565b975061218783612907565b925050600181019050612168565b5085935050505092915050565b60006121ad826128db565b6121b7818561293f565b93506121c2836128ab565b8060005b838110156121f35781516121da88826120e2565b97506121e583612907565b9250506001810190506121c6565b5085935050505092915050565b600061220b826128e6565b6122158185612950565b935083602082028501612227856128bb565b8060005b85811015612263578484038952815161224485826120fa565b945061224f83612914565b925060208a0199505060018101905061222b565b50829750879550505050505092915050565b6000612280826128f1565b61228a8185612961565b9350612295836128cb565b8060005b838110156122c65781516122ad888261210e565b97506122b883612921565b925050600181019050612299565b5085935050505092915050565b6122dc816129fc565b82525050565b60006122ed826128fc565b6122f78185612972565b9350612307818560208601612a41565b61231081612bd7565b840191505092915050565b6000612326826128fc565b6123308185612983565b9350612340818560208601612a41565b61234981612bd7565b840191505092915050565b6000612361602683612983565b915061236c82612be8565b604082019050919050565b6000612384601583612983565b915061238f82612c37565b602082019050919050565b60006123a7602083612983565b91506123b282612c60565b602082019050919050565b6000610120830160008301516123d66000860182612126565b5060208301516123e960208601826124c8565b506040830151848203604086015261240182826122e2565b9150506060830151848203606086015261241b82826122e2565b9150506080830151848203608086015261243582826122e2565b91505060a083015184820360a086015261244f82826122e2565b91505060c083015184820360c086015261246982826122e2565b91505060e083015184820360e086015261248382826122e2565b91505061010083015184820361010086015261249f8282612144565b9150508091505092915050565b6020820160008201516124c26000850182612126565b50505050565b6124d181612a28565b82525050565b6124e081612a28565b82525050565b60006020820190506124fb6000830184612135565b92915050565b60006040820190506125166000830185612135565b61252360208301846124d7565b9392505050565b600061010082019050612540600083018b612135565b61254d602083018a6124d7565b818103604083015261255f818961231b565b90508181036060830152612573818861231b565b90508181036080830152612587818761231b565b905081810360a083015261259b818661231b565b905081810360c08301526125af818561231b565b905081810360e08301526125c3818461231b565b90509998505050505050505050565b600060208201905081810360008301526125ec81846121a2565b905092915050565b6000602082019050818103600083015261260e8184612200565b905092915050565b600060208201905081810360008301526126308184612275565b905092915050565b600060208201905061264d60008301846122d3565b92915050565b6000602082019050818103600083015261266d818461231b565b905092915050565b6000608082019050818103600083015261268f818761231b565b905061269e6020830186612135565b81810360408301526126b0818561231b565b905081810360608301526126c4818461231b565b905095945050505050565b600060408201905081810360008301526126e9818561231b565b90506126f860208301846124d7565b9392505050565b6000602082019050818103600083015261271881612354565b9050919050565b6000602082019050818103600083015261273881612377565b9050919050565b600060208201905081810360008301526127588161239a565b9050919050565b600060208201905061277460008301846124d7565b92915050565b600061010082019050612790600083018b6124d7565b81810360208301526127a2818a61231b565b905081810360408301526127b6818961231b565b905081810360608301526127ca818861231b565b905081810360808301526127de818761231b565b905081810360a08301526127f2818661231b565b905081810360c0830152612806818561231b565b905081810360e083015261281a81846121a2565b90509998505050505050505050565b6000612833612844565b905061283f8282612ad0565b919050565b6000604051905090565b600067ffffffffffffffff82111561286957612868612ba8565b5b602082029050602081019050919050565b600067ffffffffffffffff82111561289557612894612ba8565b5b61289e82612bd7565b9050602081019050919050565b6000819050602082019050919050565b6000819050602082019050919050565b6000819050602082019050919050565b600081519050919050565b600081519050919050565b600081519050919050565b600081519050919050565b6000602082019050919050565b6000602082019050919050565b6000602082019050919050565b600082825260208201905092915050565b600082825260208201905092915050565b600082825260208201905092915050565b600082825260208201905092915050565b600082825260208201905092915050565b600082825260208201905092915050565b600061299f82612a28565b91506129aa83612a28565b9250827fffffffffffffffffffffffffffffffffffffffffffffffffffffffffffffffff038211156129df576129de612b4a565b5b828201905092915050565b60006129f582612a08565b9050919050565b60008115159050919050565b600073ffffffffffffffffffffffffffffffffffffffff82169050919050565b6000819050919050565b82818337600083830152505050565b60005b83811015612a5f578082015181840152602081019050612a44565b83811115612a6e576000848401525b50505050565b6000612a7f82612a28565b91506000821415612a9357612a92612b4a565b5b600182039050919050565b60006002820490506001821680612ab657607f821691505b60208210811415612aca57612ac9612b79565b5b50919050565b612ad982612bd7565b810181811067ffffffffffffffff82111715612af857612af7612ba8565b5b80604052505050565b6000612b0c82612a28565b91507fffffffffffffffffffffffffffffffffffffffffffffffffffffffffffffffff821415612b3f57612b3e612b4a565b5b600182019050919050565b7f4e487b7100000000000000000000000000000000000000000000000000000000600052601160045260246000fd5b7f4e487b7100000000000000000000000000000000000000000000000000000000600052602260045260246000fd5b7f4e487b7100000000000000000000000000000000000000000000000000000000600052604160045260246000fd5b6000601f19601f8301169050919050565b7f4f776e61626c653a206e6577206f776e657220697320746865207a65726f206160008201527f6464726573730000000000000000000000000000000000000000000000000000602082015250565b7f596f7520617265206e6f742076616c696461746f720000000000000000000000600082015250565b7f4f776e61626c653a2063616c6c6572206973206e6f7420746865206f776e6572600082015250565b612c92816129ea565b8114612c9d57600080fd5b50565b612ca981612a28565b8114612cb457600080fd5b5056fea26469706673582212204e5e6e8893f6c08ce6bcbefd0eeed98bb547297b2f0387d5e961ad0777ba4d8964736f6c63430008040033",
  "linkReferences": {},
  "deployedLinkReferences": {}
}